{
  "transactions": [
    {
      "hash": "0x53c13b1041f4eff77cf3c791f5fb3b48f6b2e588d857cec2f8a295cef1847956",
      "transactionType": "CREATE",
      "contractName": "BrainfuckVM",
      "contractAddress": "0x6376b74c56a5ee60d79d0eba53c5ceb5357f3556",
      "function": null,
      "arguments": [
        "30000"
      ],
      "transaction": {
        "from": "0xe8b51d27389d581b99d70656de3c69d521485b5f",
        "gas": "0x159d8e",
        "value": "0x0",
        "input": "0x60a034606457601f61130638819003918201601f19168301916001600160401b038311848410176068578084926020946040528339810103126064575180606057506175305b608052604051611289908161007d8239608051816104670152f35b6045565b5f80fd5b634e487b7160e01b5f52604160045260245ffdfe60806040526004361015610011575f80fd5b5f3560e01c806307ef530e14610074578063a8c542111461006f578063b5c9da151461006a578063d49604e914610065578063d9a5f942146100605763f17fc1821461005b575f80fd5b610450565b6102df565b6102c2565b610203565b610173565b346100c15760203660031901126100c15760043567ffffffffffffffff81116100c1576100b16100ab6100bd9236906004016100c5565b9061063b565b604051918291826100f3565b0390f35b5f80fd5b9181601f840112156100c15782359167ffffffffffffffff83116100c157602083818601950101116100c157565b602060409281835280519182918282860152018484015e5f828201840152601f01601f1916010190565b60606003198201126100c15760043567ffffffffffffffff81116100c15781610148916004016100c5565b929092916024359067ffffffffffffffff82116100c15761016b916004016100c5565b909160443590565b346100c1576100bd6100b16101873661011d565b93929092610d2b565b90600182811c921680156101be575b60208310146101aa57565b634e487b7160e01b5f52602260045260245ffd5b91607f169161019f565b634e487b7160e01b5f52604160045260245ffd5b90601f8019910116810190811067ffffffffffffffff8211176101fe57604052565b6101c8565b346100c15760203660031901126100c1576004355f525f60205260405f20604051905f9080549061023382610190565b808552916001811690811561029b575060011461025b575b6100bd846100b1818603826101dc565b5f90815260208120939250905b808210610281575090915081016020016100b18261024b565b919260018160209254838588010152019101909291610268565b60ff191660208087019190915292151560051b850190920192506100b1915083905061024b565b346100c1576100bd6100b16102d63661011d565b93929092610d6a565b346100c1576102fb6102f03661011d565b918385969496610d2b565b916103058161048a565b9061031360405192836101dc565b808252602082019236828201116100c157815f9260209286378301015251902090815f525f60205260405f209181519267ffffffffffffffff84116101fe57610366846103608354610190565b83610fcb565b602093601f81116001146103e65780610397916100bd965f916103db575b508160011b915f199060031b1c19161790565b90555b604051907f612cc37a1f47d630f6488cfac15c0d592f122a93b89ad14d7ca60eb36ad093f53392806103cc86826100f3565b0390a3604051918291826100f3565b90508501515f610384565b601f198116946103f9835f5260205f2090565b955f5b81811061043857509582916001936100bd9810610420575b5050811b01905561039a565b8601515f1960f88460031b161c191690555f80610414565b868301518855600190970196602092830192016103fc565b346100c1575f3660031901126100c15760206040517f00000000000000000000000000000000000000000000000000000000000000008152f35b67ffffffffffffffff81116101fe57601f01601f191660200190565b604051906104b56020836101dc565b5f808352366020840137565b906104cb8261048a565b6104d860405191826101dc565b82815280926104e9601f199161048a565b0190602036910137565b67ffffffffffffffff81116101fe5760051b60200190565b90610515826104f3565b61052260405191826101dc565b82815280926104e9601f19916104f3565b634e487b7160e01b5f52601160045260245ffd5b5f1981146105555760010190565b610533565b634e487b7160e01b5f52603260045260245ffd5b9082101561057a570190565b61055a565b8015610555575f190190565b805182101561057a5760209160051b010190565b906001820180921161055557565b906002820180921161055557565b906005820180921161055557565b906003820180921161055557565b906004820180921161055557565b63ffffffff60019116019063ffffffff821161055557565b63ffffffff1663ffffffff81146105555760010190565b908160021b918083046004149015171561055557565b90815181101561057a570160200190565b9190918215610d1d5761064d8361050b565b925f916106598261050b565b905f925f925b81841061077a575050505061076b5761067f61067a82610614565b6104c1565b925f5b82811061068e57505050565b806106a861069e6001938561058b565b5163ffffffff1690565b6106cd6106bd601883901c60ff165b60ff1690565b60f81b6001600160f81b03191690565b6106e36106d984610614565b915f1a918961062a565b536106f86106bd601083901c61ffff166106b7565b61070c6106d961070785610614565b61059f565b536107226106bd600883901c62ffffff166106b7565b6107366106d961073185610614565b6105ad565b5361076461074b61074684610614565b6105c9565b60f89290921b6001600160f81b0319165f1a918861062a565b5301610682565b63ccba53b760e01b5f5260045ffd5b6107ad6107a06107928685879b979c9a99989c61056e565b356001600160f81b03191690565b6001600160f81b03191690565b92601f60f91b841494858015610d10575b8015610d03575b8015610cf6575b156109085760019992995b846107e18561059f565b10806108e6575b156108d05762ffffff63ffffffff8216146108155761080961080f916105fd565b93610547565b926107d7565b979993949661086f9392999661086a92985b5f911561087757505061085f61084860ff60015b1660181b63ff0000001690565b62ffffff61085584610547565b9b1617918c61058b565b9063ffffffff169052565b610547565b92919061065f565b600f60fa1b810361089357505061085f61084860ff600261083b565b602b60f81b81036108af57505061085f61084860ff600361083b565b602d60f81b146108c8575b61084860ff61085f9261083b565b5060046108ba565b979993949661086f9392999661086a9298610827565b50856109026107a06107928d896108fc8a61059f565b9161056e565b146107e8565b95969891929390979450601760f91b81145f14610943575061086f9061086a61093a61093389610547565b988b61058b565b63050000009052565b600b60fa1b810361096b575061086f9061086a61096261093389610547565b63060000009052565b605b60f81b8103610c635750808361098561086f936105ad565b1080610c19575b80610bf4575b156109ba5761086a906107316109b16109aa8a610547565b998c61058b565b63090000009052565b836109c4826105bb565b1080610bcf575b80610bb1575b80610b8c575b80610b67575b80610b42575b15610a095761086a90610a046109fb6109aa8a610547565b630a0000019052565b6105bb565b83610a13826105bb565b1080610b1d575b80610af8575b80610ad3575b80610ab5575b80610a89575b15610a535761086a90610a04610a4a6109aa8a610547565b630b0000019052565b610a71610a5f87610547565b9661085f63ffffffff8a16918661058b565b61086a610a8061093389610547565b63070000009052565b50605d60f81b6001600160f81b0319610aae610792610aa7856105bb565b888a61056e565b1614610a32565b50601f60f91b610acd6107a0610792610aa7856105d7565b14610a2c565b50602b60f81b6001600160f81b0319610af1610792610aa7856105c9565b1614610a26565b50600f60fa1b6001600160f81b0319610b16610792610aa7856105ad565b1614610a20565b50602d60f81b6001600160f81b0319610b3b610792610aa78561059f565b1614610a1a565b50605d60f81b6001600160f81b0319610b60610792610aa7856105bb565b16146109e3565b50600f60fa1b6001600160f81b0319610b85610792610aa7856105d7565b16146109dd565b50602b60f81b6001600160f81b0319610baa610792610aa7856105c9565b16146109d7565b50601f60f91b610bc96107a0610792610aa7856105ad565b146109d1565b50602d60f81b6001600160f81b0319610bed610792610aa78561059f565b16146109cb565b50605d60f81b6001600160f81b0319610c12610792610aa7856105ad565b1614610992565b50602d60f81b6001600160f81b0319610c37610792610aa78561059f565b16148061098c5750602b60f81b6001600160f81b0319610c5c610792610aa78561059f565b161461098c565b605d60f81b14610c77575b61086f90610547565b93801561076b5761069e94610cef610cdd88610cd88c61085f610cbc610cb3610cad610ca561086f9b61057f565b9e8f8d61058b565b9561059f565b63ffffffff1690565b63ffffffff851690610cd161069e838661058b565b179261058b565b6105e5565b63080000001761085f6109aa8a610547565b9050610c6e565b50602d60f81b85146107cc565b50602b60f81b85146107c5565b50600f60fa1b85146107be565b509050610d286104a6565b90565b939291908015610d5d576009853560f81c1115610d5457610d4f90610d289561063b565b61101a565b610d2894610d6a565b5050505050610d286104a6565b94939290928315610fbd57604051926127408401604052612740388539604051965f8852610820880160405284935f5f5f9884019584915b878310610df257505050505050505061271082018111610de05710610dce578083528201602001604052565b604051633bf08bad60e01b8152600490fd5b6040516326aaeb2760e01b8152600490fd5b603f811615610fa3575b6001019180358d62ffffff8260e01c16918060f81c9182600114610f935782600214610f835782600314610f6e5782600414610f595782600514610f39575081600614610f115781600714610ef05781600814610eba5750908160049392600914610eae5780600a14610e9457600b14610e7b575001965b9691610da2565b8a515f1a905f8c538b039081515f1a0190530196610e74565b508a515f1a905f8c538b019081515f1a0190530196610e74565b50505f8a530196610e74565b91505089989198515f1a15908115610edd575b5015610e74579660040196610e74565b60de1c6303fffffc16870198505f610ecd565b91505089989198515f1a908115610edd575015610e74579660040196610e74565b5050506004905f868610610f29575b8a530196610e74565b5060018501948801355f1a610f20565b9050600192508d915060206004949e8d515f1a92010153019a0196610e74565b505050906004918a515f1a038a530196610e74565b505050906004918a515f1a018a530196610e74565b5050506004919903980196610e74565b5050506004919901980196610e74565b81811115610dfc57604051633d1c803160e21b8152600490fd5b505050509050610d286104a6565b601f8211610fd857505050565b5f5260205f20906020601f840160051c83019310611010575b601f0160051c01905b818110611005575050565b5f8155600101610ffa565b9091508190610ff1565b9392918451928315610fbd57604051926127408401604052612740388539604051965f8852610820880160405284935f5f60205f998501019560208501915b87831061108557505050505050505061271082018111610de05710610dce578083528201602001604052565b603f811615611239575b6001019180518d62ffffff8260e01c16918060f81c91826001146112295782600214611219578260031461120457826004146111ef57826005146111cf5750816006146111a75781600714611186578160081461114d57509081600493926009146111415780600a1461112757600b1461110e575001965b9691611059565b8a515f1a905f8c538b039081515f1a0190530196611107565b508a515f1a905f8c538b019081515f1a0190530196611107565b50505f8a530196611107565b91505089989198515f1a15908115611170575b5015611107579660040196611107565b60de1c6303fffffc16870160200198505f611160565b91505089989198515f1a908115611170575015611107579660040196611107565b5050506004905f8686106111bf575b8a530196611107565b5060018501948801355f1a6111b6565b9050600192508d915060206004949e8d515f1a92010153019a0196611107565b505050906004918a515f1a038a530196611107565b505050906004918a515f1a018a530196611107565b5050506004919903980196611107565b5050506004919901980196611107565b8181111561108f57604051633d1c803160e21b8152600490fdfea264697066735822122077a45721dc83c04f9f1edfcd465ac5b7d3a7b6954f6afd3dc67c3aa0ebb8021f64736f6c634300081c00330000000000000000000000000000000000000000000000000000000000007530",
        "nonce": "0x1",
        "chainId": "0x279f"
      },
      "additionalContracts": [],
      "isFixedGasLimit": false
    },
    {
      "hash": "0xf6e0fe4ce854c258c0b5ff3766b450d00bb680f5029c7e3bef5dff70531a4826",
      "transactionType": "CREATE",
      "contractName": "CartridgeRegistry",
      "contractAddress": "0x99960401794c8358c4b1e9f3010102d28cee8a3c",
      "function": null,
      "arguments": [
        "0x6376B74C56a5ee60d79D0eba53C5ceb5357F3556"
      ],
      "transaction": {
        "from": "0xe8b51d27389d581b99d70656de3c69d521485b5f",
        "gas": "0x17cfbd",
        "value": "0x0",
        "input": "0x60a03461008857601f61152638819003918201601f19168301916001600160401b0383118484101761008c5780849260209460405283398101031261008857516001600160a01b038116908190036100885760805260405161148590816100a1823960805181818161049c0152818161066301528181610703015281816108140152610ca10152f35b5f80fd5b634e487b7160e01b5f52604160045260245ffdfe6080806040526004361015610012575f80fd5b5f3560e01c90816320a4bf3e14610c21575080632347ad2b14610bea5780635b8aec3e14610ba05780635c777e231461076c5780635efaf18714610692578063929312981461064e5780639f1264d8146103b0578063abd5919c14610319578063b20bfbb9146102d9578063c02a26521461029d578063c3ecf89714610252578063cd0dcf3e146102365763eab7dc8f146100ab575f80fd5b34610232576040366003190112610232576004356024356001600160401b038111610232576100de903690600401610fcf565b5f92919254821015610223575f8281526002602090815260408083203384529091529020906001600160401b03811161020f576101258161011f8454611022565b84611264565b5f601f82116001146101ad5781906101549394955f926101a2575b50508160011b915f199060031b1c19161790565b90555b5f8181526003602090815260408083203380855292528220805460ff1916600117905591907fbd1ad45e5f996be50aad4631d2dc9273fc8ccc9f300dc20bee4d2b8f7af6cec99080a3005b013590505f80610140565b601f19821694835f5260205f20915f5b8781106101f75750836001959697106101de575b505050811b019055610157565b01355f19600384901b60f8161c191690555f80806101d1565b909260206001819286860135815501940191016101bd565b634e487b7160e01b5f52604160045260245ffd5b6382222d1160e01b5f5260045ffd5b5f80fd5b34610232575f3660031901126102325760205f54604051908152f35b34610232576020366003190112610232576004355f54811015610223575f52600160205261029961028560405f20611096565b604051918291602083526020830190611136565b0390f35b34610232576102ab36610ffc565b905f52600360205260405f209060018060a01b03165f52602052602060ff60405f2054166040519015158152f35b34610232576102e736610ffc565b905f54811015610223575f52600260205260405f209060018060a01b03165f5260205261029961028560405f20611096565b34610232576020366003190112610232576004355f54811015610223575f52600160205261039360405f2060018060a01b0360028201541660038201546103a1600161037f61036786611096565b9561037860405180948193016113ae565b0382611075565b604051958695608087526080870190611136565b908582036020870152611136565b91604084015260608301520390f35b34610232576103be3661115a565b9192905f54821015610223575f82815260036020908152604080832033845290915290205460ff161561063f576104905f918383526001602052610458604084209685855260026020526040852060018060a01b033316865260205260208061042960408820611096565b8560405196879584870137840190828201898152815193849201905e010185815203601f198101835282611075565b60405163a8c5421160e01b815260606004820152948592839261047e606485018a6113ae565b84810360031901602486015290611136565b604483019190915203817f00000000000000000000000000000000000000000000000000000000000000006001600160a01b03165afa918215610634575f92610610575b505f818152600260209081526040808320338452909152902082516001600160401b03811161020f5761050b8161011f8454611022565b6020601f82116001146105aa579161053f8261029997936003955f9161059f575b508160011b915f199060031b1c19161790565b90555b0161054d81546112b3565b905560405190602082527ffde6dffcd6987880eff5c2fd528a67b97dcc0a85465a72a5b28f846aa875bef33392806105886020820187611136565b0390a3604051918291602083526020830190611136565b90508701518961052c565b601f19821690835f52805f20915f5b8181106105f857509260039492600192826102999a96106105e1575b5050811b019055610542565b8801515f1983881b60f8161c1916905588806105d5565b9192602060018192868b0151815501940192016105b9565b61062d9192503d805f833e6106258183611075565b8101906111ac565b90836104d4565b6040513d5f823e3d90fd5b639ea1747960e01b5f5260045ffd5b34610232575f366003190112610232576040517f00000000000000000000000000000000000000000000000000000000000000006001600160a01b03168152602090f35b34610232576106a03661115a565b9192905f54821015610223576106f7935f9183835260016020526040832094604051968793849363a8c5421160e01b8552606060048601526106e5606486018a6113ae565b8581036003190160248701529161120e565b604483019190915203817f00000000000000000000000000000000000000000000000000000000000000006001600160a01b03165afa91821561063457610299935f9361074d575b5060030161054d81546112b3565b6003919350610765903d805f833e6106258183611075565b929061073f565b34610232576060366003190112610232576004356001600160401b0381116102325761079c903690600401610fcf565b6024356001600160401b038111610232576107bb903690600401610fcf565b6044939193356001600160401b038111610232576107dd903690600401610fcf565b9490938015610b91576040516303f7a98760e11b815260206004820152935f91859182916108109160248401919061120e565b03817f00000000000000000000000000000000000000000000000000000000000000006001600160a01b03165afa928315610634575f93610b75575b505f54926040519061085d8261105a565b815261086a36848461122e565b956020820196875261088c604083019633885260608401925f8452369161122e565b9560808301968752855f52600160205260405f2092518051906001600160401b03821161020f576108c7826108c18754611022565b87611264565b602090601f8311600114610b12576108f592915f9183610a1c5750508160011b915f199060031b1c19161790565b83555b6001830197519788516001600160401b03811161020f5761091d8161011f8454611022565b6020601f8211600114610aaa57908061095192600498999a9b9c5f92610a9f5750508160011b915f199060031b1c19161790565b90555b600283019060018060a01b039051166bffffffffffffffffffffffff60a01b825416179055516003820155019351908151946001600160401b03861161020f578585936109ad6020986109a78554611022565b85611264565b8790601f8311600114610a2757825f5160206114305f395f51905f529593610a1195936109ee935f92610a1c5750508160011b915f199060031b1c19161790565b90555b6109fb5f546112b3565b5f5560405191829188835233968984019161120e565b0390a3604051908152f35b015190508b80610140565b90601f19831691845f52815f20925f5b818110610a8557509260019285925f5160206114305f395f51905f529896610a11989610610a6d575b505050811b0190556109f1565b01515f1960f88460031b161c191690558a8080610a60565b8284015185558a9850600190940193928b01928b01610a37565b015190508c80610140565b601f1982169a835f52815f209b5f5b818110610afa575091600498999a9b9c91846001959410610ae2575b505050811b019055610954565b01515f1960f88460031b161c191690558b8080610ad5565b838301518e556001909d019c60209384019301610ab9565b90601f19831691865f52815f20925f5b818110610b5d5750908460019594939210610b45575b505050811b0183556108f8565b01515f1960f88460031b161c191690558a8080610b38565b92936020600181928786015181550195019301610b22565b610b8a9193503d805f833e6106258183611075565b918561084c565b63277b9f2b60e01b5f5260045ffd5b34610232576020366003190112610232576004355f54811015610223575f8181526001602090815260408083206002835281842033855290925290912061015791600401906112d5565b3461023257610bf836610ffc565b905f52600260205260405f209060018060a01b03165f5260205261029961028560405f20611096565b34610232576040366003190112610232576004356001600160401b03811161023257610c51903690600401610fcf565b906024356001600160401b03811161023257610c71903690600401610fcf565b9190928015610b915784610c9d5f9382936303f7a98760e11b845260206004850152602484019161120e565b03817f00000000000000000000000000000000000000000000000000000000000000006001600160a01b03165afa928315610634575f93610fb3575b505f549160405193610cea8561105a565b8452610cf736838361122e565b90602085019182526040850194338652606081015f815260209660405194610d1f8987611075565b5f865260808401958652875f526001895260405f2093518051906001600160401b03821161020f57610d5b82610d558854611022565b88611264565b8a90601f8311600114610f4d57610d8892915f9183610a9f5750508160011b915f199060031b1c19161790565b84555b51805160018501916001600160401b03821161020f57610daf826109a78554611022565b8a90601f8311600114610ee1579180610de392600498979695945f92610ed65750508160011b915f199060031b1c19161790565b90555b600283019060018060a01b039051166bffffffffffffffffffffffff60a01b8254161790555160038201550191519182516001600160401b03811161020f578593610e35826109a78554611022565b8790601f8311600114610e7657825f5160206114305f395f51905f529593610a1195936109ee935f92610a1c5750508160011b915f199060031b1c19161790565b90601f19831691845f52895f20925f5b8b828210610ebd5750509260019285925f5160206114305f395f51905f529896610a11989610610a6d57505050811b0190556109f1565b8484015186558b99506001909501949384019301610e86565b015190508d80610140565b5f8481528c8120929190601f198516908e5b828210610f3557505091600193918560049a999897969410610f1d575b505050811b019055610de6565b01515f1960f88460031b161c191690558c8080610f10565b80600186978294978701518155019601940190610ef3565b5f8781528c8120929190601f198516908e5b828210610f9b575050908460019594939210610f83575b505050811b018455610d8b565b01515f1960f88460031b161c191690558b8080610f76565b80600186978294978701518155019601940190610f5f565b610fc89193503d805f833e6106258183611075565b9183610cd9565b9181601f84011215610232578235916001600160401b038311610232576020838186019501011161023257565b604090600319011261023257600435906024356001600160a01b03811681036102325790565b90600182811c92168015611050575b602083101461103c57565b634e487b7160e01b5f52602260045260245ffd5b91607f1691611031565b60a081019081106001600160401b0382111761020f57604052565b90601f801991011681019081106001600160401b0382111761020f57604052565b9060405191825f8254926110a984611022565b808452936001811690811561111457506001146110d0575b506110ce92500383611075565b565b90505f9291925260205f20905f915b8183106110f85750509060206110ce928201015f6110c1565b60209193508060019154838589010152019101909184926110df565b9050602092506110ce94915060ff191682840152151560051b8201015f6110c1565b805180835260209291819084018484015e5f828201840152601f01601f1916010190565b9060606003198301126102325760043591602435906001600160401b0382116102325761118991600401610fcf565b909160443590565b6001600160401b03811161020f57601f01601f191660200190565b602081830312610232578051906001600160401b038211610232570181601f82011215610232578051906111df82611191565b926111ed6040519485611075565b8284526020838301011161023257815f9260208093018386015e8301015290565b908060209392818452848401375f828201840152601f01601f1916010190565b92919261123a82611191565b916112486040519384611075565b829481845281830111610232578281602093845f960137010152565b601f821161127157505050565b5f5260205f20906020601f840160051c830193106112a9575b601f0160051c01905b81811061129e575050565b5f8155600101611293565b909150819061128a565b5f1981146112c15760010190565b634e487b7160e01b5f52601160045260245ffd5b9190918281146113a9576112e98354611022565b6001600160401b03811161020f576113058161011f8454611022565b5f93601f82116001146113435761133492939482915f926113385750508160011b915f199060031b1c19161790565b9055565b015490505f80610140565b601f198216905f5260205f2094835f5260205f20915f5b81811061139157509583600195969710611379575b505050811b019055565b01545f1960f88460031b161c191690555f808061136f565b9192600180602092868b01548155019401920161135a565b509050565b5f92918154916113bd83611022565b808352926001811690811561141257506001146113d957505050565b5f9081526020812093945091925b8383106113f8575060209250010190565b6001816020929493945483858701015201910191906113e7565b915050602093945060ff929192191683830152151560051b01019056fe7dac7ca7c9cb104cc65101a08160dfc4ce5acc267eb472ca4ae6b41c2722f06ca2646970667358221220affbe4550527fd04a390b7a207e3efc2282950159168fb79462a6bf36f937eb964736f6c634300081c00330000000000000000000000006376b74c56a5ee60d79d0eba53c5ceb5357f3556",
        "nonce": "0x2",
        "chainId": "0x279f"
      },
      "additionalContracts": [],
      "isFixedGasLimit": false
    },
    {
      "hash": "0xdf71d31e7cb0cea206a868d2e461b1dd1789da0a446198bcdf0b9494eea3f0cf",
      "transactionType": "CALL",
      "contractName": "CartridgeRegistry",
      "contractAddress": "0x99960401794c8358c4b1e9f3010102d28cee8a3c",
      "function": "loadCartridge(bytes,string,bytes)",
      "arguments": [
        "0x2c3e2c3e2c3e2c3e2c3e2b3c3c3c3c3c2d5b2d3e3e3e3e3e3e3e2b3e2b3c3c3c3c3c3c3c3c5d3e3e3e3e3e3e3e3e5b2d3c3c3c3c3c3c3c3c2b3e3e3e3e3e3e3e3e5d3c3c2b3e5b3c2d3e5b2d5d5d3c5b3c3c3c3c3c2d2d2d2d2d2d2d2d2d2d2d2d2d2d2d2d2d2d2d2d2d2d2d2d2d2d2d2d2d2d3e2b2b2b2b2b3e3e2b3e3e2d5d5b2d5d3e5b2d5d3e5b2d5d3c3c3c3c3c3c3c3c2d5b2d3e3e3e3e3e3e3e2b3e2b3c3c3c3c3c3c3c3c5d3e3e3e3e3e3e3e3e5b2d3c3c3c3c3c3c3c3c2b3e3e3e3e3e3e3e3e5d3c3c2b3e5b3c2d3e5b2d5d5d3c5b3c3c3c3c2b2b2b2b2b2b2b2b2b2b2b2b2b2b2b2b2b2b2b2b3e2d2d2d2d2d2d2d2d2d2d2d2d2d2d2d3c3c2b2b2b2b2b2b2b2b2b2b3e3e3e2b3e3e2d5d5b2d5d3e5b2d5d3e5b2d5d3c3c3c3c3c3c3c3c2d5b2d3e3e3e3e3e3e3e2b3e2b3c3c3c3c3c3c3c3c5d3e3e3e3e3e3e3e3e5b2d3c3c3c3c3c3c3c3c2b3e3e3e3e3e3e3e3e5d3c3c2b3e5b3c2d3e5b2d5d5d3c5b3c3c3c2b2b2b2b2b2b2b2b2b2b2b2b2b2b2b2b2b2b2b2b2b2b2b2b2b2b2b2b2b2b3c2d2d2d2d2d3e3e2b3e3e2d5d5b2d5d3e5b2d5d3e5b2d5d3c3c3c3c3c3c5b2d3e3e3e3e3e2b3e2b3c3c3c3c3c3c5d3e3e3e3e3e3e5b2d3c3c3c3c3c3c2b3e3e3e3e3e3e5d3c3c2b3e5b3c2d3e5b2d5d5d3c5b3c2d3e2d5d5b2d5d3e5b2d5d3e5b2d5d3c3c3c3c3c5b2d3e3e3e3e2b3e2b3c3c3c3c3c5d3e3e3e3e3e5b2d3c3c3c3c3c2b3e3e3e3e3e5d3c3c2b3e5b3c2d3e5b2d5d5d3c5b3c2d3e2d5d5b2d5d3e5b2d5d3e5b2d5d3c3c3c3c3c3c3c2e3e2e3e2e3e2e3e2e",
        "Tamagotchi",
        "0x00503250"
      ],
      "transaction": {
        "from": "0xe8b51d27389d581b99d70656de3c69d521485b5f",
        "to": "0x99960401794c8358c4b1e9f3010102d28cee8a3c",
        "gas": "0xf02f",
        "value": "0x0",
        "input": "0x5c777e23000000000000000000000000000000000000000000000000000000000000006000000000000000000000000000000000000000000000000000000000000002c00000000000000000000000000000000000000000000000000000000000000300000000000000000000000000000000000000000000000000000000000000023b2c3e2c3e2c3e2c3e2c3e2b3c3c3c3c3c2d5b2d3e3e3e3e3e3e3e2b3e2b3c3c3c3c3c3c3c3c5d3e3e3e3e3e3e3e3e5b2d3c3c3c3c3c3c3c3c2b3e3e3e3e3e3e3e3e5d3c3c2b3e5b3c2d3e5b2d5d5d3c5b3c3c3c3c3c2d2d2d2d2d2d2d2d2d2d2d2d2d2d2d2d2d2d2d2d2d2d2d2d2d2d2d2d2d2d3e2b2b2b2b2b3e3e2b3e3e2d5d5b2d5d3e5b2d5d3e5b2d5d3c3c3c3c3c3c3c3c2d5b2d3e3e3e3e3e3e3e2b3e2b3c3c3c3c3c3c3c3c5d3e3e3e3e3e3e3e3e5b2d3c3c3c3c3c3c3c3c2b3e3e3e3e3e3e3e3e5d3c3c2b3e5b3c2d3e5b2d5d5d3c5b3c3c3c3c2b2b2b2b2b2b2b2b2b2b2b2b2b2b2b2b2b2b2b2b3e2d2d2d2d2d2d2d2d2d2d2d2d2d2d2d3c3c2b2b2b2b2b2b2b2b2b2b3e3e3e2b3e3e2d5d5b2d5d3e5b2d5d3e5b2d5d3c3c3c3c3c3c3c3c2d5b2d3e3e3e3e3e3e3e2b3e2b3c3c3c3c3c3c3c3c5d3e3e3e3e3e3e3e3e5b2d3c3c3c3c3c3c3c3c2b3e3e3e3e3e3e3e3e5d3c3c2b3e5b3c2d3e5b2d5d5d3c5b3c3c3c2b2b2b2b2b2b2b2b2b2b2b2b2b2b2b2b2b2b2b2b2b2b2b2b2b2b2b2b2b2b3c2d2d2d2d2d3e3e2b3e3e2d5d5b2d5d3e5b2d5d3e5b2d5d3c3c3c3c3c3c5b2d3e3e3e3e3e2b3e2b3c3c3c3c3c3c5d3e3e3e3e3e3e5b2d3c3c3c3c3c3c2b3e3e3e3e3e3e5d3c3c2b3e5b3c2d3e5b2d5d5d3c5b3c2d3e2d5d5b2d5d3e5b2d5d3e5b2d5d3c3c3c3c3c5b2d3e3e3e3e2b3e2b3c3c3c3c3c5d3e3e3e3e3e5b2d3c3c3c3c3c2b3e3e3e3e3e5d3c3c2b3e5b3c2d3e5b2d5d5d3c5b3c2d3e2d5d5b2d5d3e5b2d5d3e5b2d5d3c3c3c3c3c3c3c2e3e2e3e2e3e2e3e2e0000000000000000000000000000000000000000000000000000000000000000000000000a54616d61676f746368690000000000000000000000000000000000000000000000000000000000000000000000000000000000000000000000000000000000040050325000000000000000000000000000000000000000000000000000000000",
        "nonce": "0x3",
        "chainId": "0x279f"
      },
      "additionalContracts": [],
      "isFixedGasLimit": false
    },
    {
      "hash": "0x6abab73be4691931c441f8963117bf908b63b3654e9f8a3ff10bfaf24b4b0f79",
      "transactionType": "CALL",
      "contractName": "CartridgeRegistry",
      "contractAddress": "0x99960401794c8358c4b1e9f3010102d28cee8a3c",
      "function": "loadCartridge(bytes,string)",
      "arguments": [
        "0x2c5b2d3e2b3e2b3c3c5d3e3e5b2d3c3c2b3e3e5d3c3c3e5b2d3e3e3e2b3c3c3c5d3e3e3e5b2d3c3c3c2b2b2b2b2b2b2b3c3c3c5d3c3c3e2b2b2b3e3e3e3e2b2b2b2b2b2b3e5b2d5d3e5b2d5d3c3c3c3c5b3c2d3e2b3e5b2d3e3e2b3e2b3c3c3c5d3e3e3e5b2d3c3c3c2b3e3e3e5d3c3c3c2d2d2d2d2d2d3e5b2d5d3e2b3e3e5b3e2d3e5b2d5d5d3e3e5b3c3c5b2d5d3e3e2d5d3c3c3c3c3c5d3e3e2b3e2e",
        "Dice Roller"
      ],
      "transaction": {
        "from": "0xe8b51d27389d581b99d70656de3c69d521485b5f",
        "to": "0x99960401794c8358c4b1e9f3010102d28cee8a3c",
        "gas": "0x9764",
        "value": "0x0",
        "input": "0x20a4bf3e00000000000000000000000000000000000000000000000000000000000000400000000000000000000000000000000000000000000000000000000000000100000000000000000000000000000000000000000000000000000000000000009e2c5b2d3e2b3e2b3c3c5d3e3e5b2d3c3c2b3e3e5d3c3c3e5b2d3e3e3e2b3c3c3c5d3e3e3e5b2d3c3c3c2b2b2b2b2b2b2b3c3c3c5d3c3c3e2b2b2b3e3e3e3e2b2b2b2b2b2b3e5b2d5d3e5b2d5d3c3c3c3c5b3c2d3e2b3e5b2d3e3e2b3e2b3c3c3c5d3e3e3e5b2d3c3c3c2b3e3e3e5d3c3c3c2d2d2d2d2d2d3e5b2d5d3e2b3e3e5b3e2d3e5b2d5d5d3e3e5b3c3c5b2d5d3e3e2d5d3c3c3c3c3c5d3e3e2b3e2e0000000000000000000000000000000000000000000000000000000000000000000b4469636520526f6c6c6572000000000000000000000000000000000000000000",
        "nonce": "0x4",
        "chainId": "0x279f"
      },
      "additionalContracts": [],
      "isFixedGasLimit": false
    },
    {
      "hash": "0x88bb30fea2155147a73ba8470dcb02b3dfeff40c6f13f2f789524fed744f0642",
      "transactionType": "CALL",
      "contractName": "CartridgeRegistry",
      "contractAddress": "0x99960401794c8358c4b1e9f3010102d28cee8a3c",
      "function": "loadCartridge(bytes,string)",
      "arguments": [
        "0x2b2b3e2b2b3e3e3e3e3e2c5b3e2c3e3e5b2d5d3e5b2d5d3c3c3c3c5b2d3e3e3e2b3e2b3c3c3c3c5d3e3e3e3e5b2d3c3c3c3c2b3e3e3e3e5d3c2d2d2d2d2d2d2d2d2d2d2d2d2d2d2d2d2d2d2d2d2d2d2d2d2d2d2d2d2d2d2d2d2d2d2d2d2d2d2d2d2d2d2d2d2d2d2d2d2d2d2d2d2d2d2d2d2d2d2d2d2d2d2d2d2d2d2d2d2d2d2d2d2d2d2d2d2d2d2d2d2d2d2d2d2d2d2d2d2d2d2d2d2d2d2d2d2d2d2d2d2d2d2d2d2d2d2d2d2d2d2d2d2d2d2d2d2d2d2d3e3e5b2d5d2b3c3c5b3e3e2d3c3c5b2d5d5d3e3e5b3c3c3c3c3c3c3c3c3c3c2d3e3e3e3e3e3e3e3e3e3e5b2d5d5d3c3c5b2d5d3e5b2d5d3c3c3c3c5b2d3e3e3e2b3e2b3c3c3c3c5d3e3e3e3e5b2d3c3c3c3c2b3e3e3e3e5d3c2d2d2d2d2d2d2d2d2d2d2d2d2d2d2d2d2d2d2d2d2d2d2d2d2d2d2d2d2d2d2d2d2d2d2d2d2d2d2d2d2d2d2d2d2d2d2d2d2d2d2d2d2d2d2d2d2d2d2d2d2d2d2d2d2d2d2d2d2d2d2d2d2d2d2d2d2d2d2d2d2d2d2d2d2d2d2d2d2d2d2d2d2d2d2d2d2d2d2d2d2d2d2d2d2d2d2d2d2d2d2d2d2d2d2d3e3e5b2d5d2b3c3c5b3e3e2d3c3c5b2d5d5d3e3e5b3c3c3c3c3c3c3c3c3c3c2b3e3e3e3e3e3e3e3e3e3e5b2d5d5d3c3c5b2d5d3e5b2d5d3c3c3c3c5b2d3e3e3e2b3e2b3c3c3c3c5d3e3e3e3e5b2d3c3c3c3c2b3e3e3e3e5d3c2d2d2d2d2d2d2d2d2d2d2d2d2d2d2d2d2d2d2d2d2d2d2d2d2d2d2d2d2d2d2d2d2d2d2d2d2d2d2d2d2d2d2d2d2d2d2d2d2d2d2d2d2d2d2d2d2d2d2d2d2d2d2d2d2d2d2d2d2d2d2d2d2d2d2d2d2d2d2d2d2d2d2d2d2d2d2d2d2d2d2d2d2d2d2d2d2d2d2d2d2d3e3e5b2d5d2b3c3c5b3e3e2d3c3c5b2d5d5d3e3e5b3c3c3c3c3c3c3c3c3c3c3c2d3e3e3e3e3e3e3e3e3e3e3e5b2d5d5d3c3c5b2d5d3e5b2d5d3c3c3c3c5b2d3e3e3e2b3e2b3c3c3c3c5d3e3e3e3e5b2d3c3c3c3c2b3e3e3e3e5d3c2d2d2d2d2d2d2d2d2d2d2d2d2d2d2d2d2d2d2d2d2d2d2d2d2d2d2d2d2d2d2d2d2d2d2d2d2d2d2d2d2d2d2d2d2d2d2d2d2d2d2d2d2d2d2d2d2d2d2d2d2d2d2d2d2d2d2d2d2d2d2d2d2d2d2d2d2d2d2d2d2d2d2d2d2d2d2d2d2d2d2d2d2d2d2d2d2d2d2d2d2d3e3e5b2d5d2b3c3c5b3e3e2d3c3c5b2d5d5d3e3e5b3c3c3c3c3c3c3c3c3c3c3c2b3e3e3e3e3e3e3e3e3e3e3e5b2d5d5d3c3c5b2d5d3e5b2d5d3c3c3c3c3c3c3c3c3c3c5b2d3e3e3e3e3e3e3e3e3e2b3e2b3c3c3c3c3c3c3c3c3c3c5d3e3e3e3e3e3e3e3e3e3e5b2d3c3c3c3c3c3c3c3c3c3c2b3e3e3e3e3e3e3e3e3e3e5d3e5b2d5d3e5b2d5d3e5b2d5d3c3c3c3c5b2d3e3e3e2b3e2b3c3c3c3c5d3e3e3e3e5b2d3c3c3c3c2b3e3e3e3e5d3e5b2d5d2b3c3c5b3e3e2d3c3c5b2d5d5d3e3e5b3c3c3c5b2d5d2b3e3e3e5b2d5d5d3c3c3c3c3c2d3e3e3e5b2d5d3e5b2d5d3c3c3c3c5b2d3e3e3e2b3e2b3c3c3c3c5d3e3e3e3e5b2d3c3c3c3c2b3e3e3e3e5d3e5b2d5d2b3c3c5b3e3e2d3c3c5b2d5d5d3e3e5b3c3c3c5b2d5d2b3e3e3e5b2d5d5d3c3c3c3c3c2d3e3e3e5b2d5d3e5b2d5d3c3c3c3c5b2d3e3e3e2b3e2b3c3c3c3c5d3e3e3e3e5b2d3c3c3c3c2b3e3e3e3e5d3e5b2d5d2b3c3c5b3e3e2d3c3c5b2d5d5d3e3e5b3c3c3c5b2d5d2b3e3e3e5b2d5d5d3c3c3c3c3c2d3e3e3e5b2d5d3e5b2d5d3c3c3c3c5b2d3e3e3e2b3e2b3c3c3c3c5d3e3e3e3e5b2d3c3c3c3c2b3e3e3e3e5d3e5b2d5d2b3c3c5b3e3e2d3c3c5b2d5d5d3e3e5b3c3c3c5b2d5d2b3e3e3e5b2d5d5d3c3c3c3c3c2d3e3e3e5b2d5d3e5b2d5d3c3c3c3c5b2d3e3e3e2b3e2b3c3c3c3c5d3e3e3e3e5b2d3c3c3c3c2b3e3e3e3e5d3e5b2d5d2b3c3c5b3e3e2d3c3c5b2d5d5d3e3e5b3c3c3c5b2d5d2b3e3e3e5b2d5d5d3c3c3c3c3c2d3e3e3e5b2d5d3e5b2d5d3c3c5b2d3e2b3e2b3c3c5d3e3e5b2d3c3c2b3e3e5d3e5b2d5d2b3c3c5b3e3e2d3c3c5b2d5d5d3e3e5b3c3c3c3c3c3c3c3c3c5b2d5d2b3e3e3e3e3e3e3e3e3e5b2d5d5d3c3c5b2d5d3e5b2d5d3c3c3c3c3c3c3c3c5b2d3e3e3e3e3e3e3e2b3e2b3c3c3c3c3c3c3c3c5d3e3e3e3e3e3e3e3e5b2d3c3c3c3c3c3c3c3c2b3e3e3e3e3e3e3e3e5d3c5b3c3c3c3c3c3c5b2d5d3e3e3e3e3e3e5b2d5d5d3c3c3c5b2d5d3e5b2d5d3c3c3c3c3c3c3c3c3c3c5b2d3e3e3e3e3e3e3e3e3e2b3e2b3c3c3c3c3c3c3c3c3c3c5d3e3e3e3e3e3e3e3e3e3e5b2d3c3c3c3c3c3c3c3c3c3c2b3e3e3e3e3e3e3e3e3e3e5d3e3e5b2d5d3e5b2d5d3c3c3c3c3c3c3c3c3c3c3c5b2d3e3e3e3e3e3e3e3e3e3e2b3e2b3c3c3c3c3c3c3c3c3c3c3c5d3e3e3e3e3e3e3e3e3e3e3e5b2d3c3c3c3c3c3c3c3c3c3c3c2b3e3e3e3e3e3e3e3e3e3e3e5d3c5b2d3c3c3c2d3e3e3e5d3c5b2d5d2b3c3c5b3e3e2d3c3c5b2d5d5d5b2d5d3e5b2d5d3c3c3c3c3c3c3c3c3c5b2d3e3e3e3e3e3e3e3e2b3e2b3c3c3c3c3c3c3c3c3c5d3e3e3e3e3e3e3e3e3e5b2d3c3c3c3c3c3c3c3c3c2b3e3e3e3e3e3e3e3e3e5d3e3e5b2d5d3e5b2d5d3c3c3c3c3c3c3c3c3c3c5b2d3e3e3e3e3e3e3e3e3e2b3e2b3c3c3c3c3c3c3c3c3c3c5d3e3e3e3e3e3e3e3e3e3e5b2d3c3c3c3c3c3c3c3c3c3c2b3e3e3e3e3e3e3e3e3e3e5d3c5b2d3c3c3c2d3e3e3e5d3e3e5b2d5d2b3c3c3c3c3c5b3e3e3e3e3e2d3c3c3c3c3c5b2d5d5d3e3e3e3e3e3e5b2d5d3c3c3c3c5b3e3e3e5b3e2b3c5b2d5d5d3c3c3c5b2d5d5d3e3e3e3e5b3c3c3c3c3c3c3c3c3c3c3c2b3e3e3e3e3e5b2d5d3e5b2d5d3c3c3c5b2d3e3e2b3e2b3c3c3c5d3e3e3e5b2d3c3c3c2b3e3e3e5d3e3e3e3e3e3e5b2d5d3e5b2d5d3c3c3c3c3c3c3c3c5b2d3e3e3e3e3e3e3e3e2b3c3c3c3c3c5b2d5d3e5b2d5d3e3e3e3e5b2d3c3c3c3c3c2b3e2b3e3e3e3e5d3c3c3c3c5b2d3e3e3e3e2b3c3c3c3c5d3c2d2d2d2d2d3e3e5b2d5d2b3c3c5b3e3e2d3c3c5b2d5d5d3e3e5b3e3e3e5b2d5d3c2b3c3c5b2d5d5d3c3c3c3c3c5d3c3c3c3c3c3c3c5b2d5d3e3e3e3e3e3e3e3e3e3e3e3e3e3e3e5b2d3c3c3c3c3c3c3c3c3c3c3c3c3c3c3c2b3e3e3e3e3e3e3e3e3e3e3e3e3e3e3e5d3c3c3c3c3c3c3c3c5b2d5d3e5b2d5d3e3e3e3e3e3e5b2d3c3c3c3c3c3c3c2b3e2b3e3e3e3e3e3e5d3c3c3c3c3c3c5b2d3e3e3e3e3e3e2b3c3c3c3c3c3c5d3e3e3e3e3e3e3e3e5b2d5d3e5b2d5d3c3c3c3c3c3c3c3c3c3c5b2d3e3e3e3e3e3e3e3e3e3e2b3c3c3c3c3c3c3c5b2d5d3e5b2d5d3e3e3e3e3e3e5b2d3c3c3c3c3c3c3c2b3e2b3e3e3e3e3e3e5d3c3c3c3c3c3c5b2d3e3e3e3e3e3e2b3c3c3c3c3c3c5d3c2d2d2d2d2d3e3e5b2d5d2b3c3c5b3e3e2d3c3c5b2d5d5d3e3e5b3e3e3e3e3e5b2d5d3c2b3c3c3c3c5b2d5d5d3c3c3c3c3c5d3c3c3c3c3c3c5b2d5d3e3e3e3e3e3e3e3e3e3e3e3e3e3e3e3e5b2d3c3c3c3c3c3c3c3c3c3c3c3c3c3c3c3c2b3e3e3e3e3e3e3e3e3e3e3e3e3e3e3e3e5d3c3c3c3c5b2d5d5d3c3c3c5b2d5d3e5b2d5d3c3c3c3c3c3c3c3c5b2d3e3e3e3e3e3e3e2b3e2b3c3c3c3c3c3c3c3c5d3e3e3e3e3e3e3e3e5b2d3c3c3c3c3c3c3c3c2b3e3e3e3e3e3e3e3e5d3e5b2d5d2b3c3c5b3e3e2d3c3c5b2d5d5d3e3e5b3c3c3c3c3c3c3c3c2c3e3e3e3e3e3e3e3e5b2d5d5d3c3c3c3c3c3c3c3c5d3c2e3c2e",
        "Snake Minimalista"
      ],
      "transaction": {
        "from": "0xe8b51d27389d581b99d70656de3c69d521485b5f",
        "to": "0x99960401794c8358c4b1e9f3010102d28cee8a3c",
        "gas": "0x27b92",
        "value": "0x0",
        "input": "0x20a4bf3e00000000000000000000000000000000000000000000000000000000000000400000000000000000000000000000000000000000000000000000000000000a4000000000000000000000000000000000000000000000000000000000000009d92b2b3e2b2b3e3e3e3e3e2c5b3e2c3e3e5b2d5d3e5b2d5d3c3c3c3c5b2d3e3e3e2b3e2b3c3c3c3c5d3e3e3e3e5b2d3c3c3c3c2b3e3e3e3e5d3c2d2d2d2d2d2d2d2d2d2d2d2d2d2d2d2d2d2d2d2d2d2d2d2d2d2d2d2d2d2d2d2d2d2d2d2d2d2d2d2d2d2d2d2d2d2d2d2d2d2d2d2d2d2d2d2d2d2d2d2d2d2d2d2d2d2d2d2d2d2d2d2d2d2d2d2d2d2d2d2d2d2d2d2d2d2d2d2d2d2d2d2d2d2d2d2d2d2d2d2d2d2d2d2d2d2d2d2d2d2d2d2d2d2d2d2d2d2d2d3e3e5b2d5d2b3c3c5b3e3e2d3c3c5b2d5d5d3e3e5b3c3c3c3c3c3c3c3c3c3c2d3e3e3e3e3e3e3e3e3e3e5b2d5d5d3c3c5b2d5d3e5b2d5d3c3c3c3c5b2d3e3e3e2b3e2b3c3c3c3c5d3e3e3e3e5b2d3c3c3c3c2b3e3e3e3e5d3c2d2d2d2d2d2d2d2d2d2d2d2d2d2d2d2d2d2d2d2d2d2d2d2d2d2d2d2d2d2d2d2d2d2d2d2d2d2d2d2d2d2d2d2d2d2d2d2d2d2d2d2d2d2d2d2d2d2d2d2d2d2d2d2d2d2d2d2d2d2d2d2d2d2d2d2d2d2d2d2d2d2d2d2d2d2d2d2d2d2d2d2d2d2d2d2d2d2d2d2d2d2d2d2d2d2d2d2d2d2d2d2d2d2d2d3e3e5b2d5d2b3c3c5b3e3e2d3c3c5b2d5d5d3e3e5b3c3c3c3c3c3c3c3c3c3c2b3e3e3e3e3e3e3e3e3e3e5b2d5d5d3c3c5b2d5d3e5b2d5d3c3c3c3c5b2d3e3e3e2b3e2b3c3c3c3c5d3e3e3e3e5b2d3c3c3c3c2b3e3e3e3e5d3c2d2d2d2d2d2d2d2d2d2d2d2d2d2d2d2d2d2d2d2d2d2d2d2d2d2d2d2d2d2d2d2d2d2d2d2d2d2d2d2d2d2d2d2d2d2d2d2d2d2d2d2d2d2d2d2d2d2d2d2d2d2d2d2d2d2d2d2d2d2d2d2d2d2d2d2d2d2d2d2d2d2d2d2d2d2d2d2d2d2d2d2d2d2d2d2d2d2d2d2d2d3e3e5b2d5d2b3c3c5b3e3e2d3c3c5b2d5d5d3e3e5b3c3c3c3c3c3c3c3c3c3c3c2d3e3e3e3e3e3e3e3e3e3e3e5b2d5d5d3c3c5b2d5d3e5b2d5d3c3c3c3c5b2d3e3e3e2b3e2b3c3c3c3c5d3e3e3e3e5b2d3c3c3c3c2b3e3e3e3e5d3c2d2d2d2d2d2d2d2d2d2d2d2d2d2d2d2d2d2d2d2d2d2d2d2d2d2d2d2d2d2d2d2d2d2d2d2d2d2d2d2d2d2d2d2d2d2d2d2d2d2d2d2d2d2d2d2d2d2d2d2d2d2d2d2d2d2d2d2d2d2d2d2d2d2d2d2d2d2d2d2d2d2d2d2d2d2d2d2d2d2d2d2d2d2d2d2d2d2d2d2d2d3e3e5b2d5d2b3c3c5b3e3e2d3c3c5b2d5d5d3e3e5b3c3c3c3c3c3c3c3c3c3c3c2b3e3e3e3e3e3e3e3e3e3e3e5b2d5d5d3c3c5b2d5d3e5b2d5d3c3c3c3c3c3c3c3c3c3c5b2d3e3e3e3e3e3e3e3e3e2b3e2b3c3c3c3c3c3c3c3c3c3c5d3e3e3e3e3e3e3e3e3e3e5b2d3c3c3c3c3c3c3c3c3c3c2b3e3e3e3e3e3e3e3e3e3e5d3e5b2d5d3e5b2d5d3e5b2d5d3c3c3c3c5b2d3e3e3e2b3e2b3c3c3c3c5d3e3e3e3e5b2d3c3c3c3c2b3e3e3e3e5d3e5b2d5d2b3c3c5b3e3e2d3c3c5b2d5d5d3e3e5b3c3c3c5b2d5d2b3e3e3e5b2d5d5d3c3c3c3c3c2d3e3e3e5b2d5d3e5b2d5d3c3c3c3c5b2d3e3e3e2b3e2b3c3c3c3c5d3e3e3e3e5b2d3c3c3c3c2b3e3e3e3e5d3e5b2d5d2b3c3c5b3e3e2d3c3c5b2d5d5d3e3e5b3c3c3c5b2d5d2b3e3e3e5b2d5d5d3c3c3c3c3c2d3e3e3e5b2d5d3e5b2d5d3c3c3c3c5b2d3e3e3e2b3e2b3c3c3c3c5d3e3e3e3e5b2d3c3c3c3c2b3e3e3e3e5d3e5b2d5d2b3c3c5b3e3e2d3c3c5b2d5d5d3e3e5b3c3c3c5b2d5d2b3e3e3e5b2d5d5d3c3c3c3c3c2d3e3e3e5b2d5d3e5b2d5d3c3c3c3c5b2d3e3e3e2b3e2b3c3c3c3c5d3e3e3e3e5b2d3c3c3c3c2b3e3e3e3e5d3e5b2d5d2b3c3c5b3e3e2d3c3c5b2d5d5d3e3e5b3c3c3c5b2d5d2b3e3e3e5b2d5d5d3c3c3c3c3c2d3e3e3e5b2d5d3e5b2d5d3c3c3c3c5b2d3e3e3e2b3e2b3c3c3c3c5d3e3e3e3e5b2d3c3c3c3c2b3e3e3e3e5d3e5b2d5d2b3c3c5b3e3e2d3c3c5b2d5d5d3e3e5b3c3c3c5b2d5d2b3e3e3e5b2d5d5d3c3c3c3c3c2d3e3e3e5b2d5d3e5b2d5d3c3c5b2d3e2b3e2b3c3c5d3e3e5b2d3c3c2b3e3e5d3e5b2d5d2b3c3c5b3e3e2d3c3c5b2d5d5d3e3e5b3c3c3c3c3c3c3c3c3c5b2d5d2b3e3e3e3e3e3e3e3e3e5b2d5d5d3c3c5b2d5d3e5b2d5d3c3c3c3c3c3c3c3c5b2d3e3e3e3e3e3e3e2b3e2b3c3c3c3c3c3c3c3c5d3e3e3e3e3e3e3e3e5b2d3c3c3c3c3c3c3c3c2b3e3e3e3e3e3e3e3e5d3c5b3c3c3c3c3c3c5b2d5d3e3e3e3e3e3e5b2d5d5d3c3c3c5b2d5d3e5b2d5d3c3c3c3c3c3c3c3c3c3c5b2d3e3e3e3e3e3e3e3e3e2b3e2b3c3c3c3c3c3c3c3c3c3c5d3e3e3e3e3e3e3e3e3e3e5b2d3c3c3c3c3c3c3c3c3c3c2b3e3e3e3e3e3e3e3e3e3e5d3e3e5b2d5d3e5b2d5d3c3c3c3c3c3c3c3c3c3c3c5b2d3e3e3e3e3e3e3e3e3e3e2b3e2b3c3c3c3c3c3c3c3c3c3c3c5d3e3e3e3e3e3e3e3e3e3e3e5b2d3c3c3c3c3c3c3c3c3c3c3c2b3e3e3e3e3e3e3e3e3e3e3e5d3c5b2d3c3c3c2d3e3e3e5d3c5b2d5d2b3c3c5b3e3e2d3c3c5b2d5d5d5b2d5d3e5b2d5d3c3c3c3c3c3c3c3c3c5b2d3e3e3e3e3e3e3e3e2b3e2b3c3c3c3c3c3c3c3c3c5d3e3e3e3e3e3e3e3e3e5b2d3c3c3c3c3c3c3c3c3c2b3e3e3e3e3e3e3e3e3e5d3e3e5b2d5d3e5b2d5d3c3c3c3c3c3c3c3c3c3c5b2d3e3e3e3e3e3e3e3e3e2b3e2b3c3c3c3c3c3c3c3c3c3c5d3e3e3e3e3e3e3e3e3e3e5b2d3c3c3c3c3c3c3c3c3c3c2b3e3e3e3e3e3e3e3e3e3e5d3c5b2d3c3c3c2d3e3e3e5d3e3e5b2d5d2b3c3c3c3c3c5b3e3e3e3e3e2d3c3c3c3c3c5b2d5d5d3e3e3e3e3e3e5b2d5d3c3c3c3c5b3e3e3e5b3e2b3c5b2d5d5d3c3c3c5b2d5d5d3e3e3e3e5b3c3c3c3c3c3c3c3c3c3c3c2b3e3e3e3e3e5b2d5d3e5b2d5d3c3c3c5b2d3e3e2b3e2b3c3c3c5d3e3e3e5b2d3c3c3c2b3e3e3e5d3e3e3e3e3e3e5b2d5d3e5b2d5d3c3c3c3c3c3c3c3c5b2d3e3e3e3e3e3e3e3e2b3c3c3c3c3c5b2d5d3e5b2d5d3e3e3e3e5b2d3c3c3c3c3c2b3e2b3e3e3e3e5d3c3c3c3c5b2d3e3e3e3e2b3c3c3c3c5d3c2d2d2d2d2d3e3e5b2d5d2b3c3c5b3e3e2d3c3c5b2d5d5d3e3e5b3e3e3e5b2d5d3c2b3c3c5b2d5d5d3c3c3c3c3c5d3c3c3c3c3c3c3c5b2d5d3e3e3e3e3e3e3e3e3e3e3e3e3e3e3e5b2d3c3c3c3c3c3c3c3c3c3c3c3c3c3c3c2b3e3e3e3e3e3e3e3e3e3e3e3e3e3e3e5d3c3c3c3c3c3c3c3c5b2d5d3e5b2d5d3e3e3e3e3e3e5b2d3c3c3c3c3c3c3c2b3e2b3e3e3e3e3e3e5d3c3c3c3c3c3c5b2d3e3e3e3e3e3e2b3c3c3c3c3c3c5d3e3e3e3e3e3e3e3e5b2d5d3e5b2d5d3c3c3c3c3c3c3c3c3c3c5b2d3e3e3e3e3e3e3e3e3e3e2b3c3c3c3c3c3c3c5b2d5d3e5b2d5d3e3e3e3e3e3e5b2d3c3c3c3c3c3c3c2b3e2b3e3e3e3e3e3e5d3c3c3c3c3c3c5b2d3e3e3e3e3e3e2b3c3c3c3c3c3c5d3c2d2d2d2d2d3e3e5b2d5d2b3c3c5b3e3e2d3c3c5b2d5d5d3e3e5b3e3e3e3e3e5b2d5d3c2b3c3c3c3c5b2d5d5d3c3c3c3c3c5d3c3c3c3c3c3c5b2d5d3e3e3e3e3e3e3e3e3e3e3e3e3e3e3e3e5b2d3c3c3c3c3c3c3c3c3c3c3c3c3c3c3c3c2b3e3e3e3e3e3e3e3e3e3e3e3e3e3e3e3e5d3c3c3c3c5b2d5d5d3c3c3c5b2d5d3e5b2d5d3c3c3c3c3c3c3c3c5b2d3e3e3e3e3e3e3e2b3e2b3c3c3c3c3c3c3c3c5d3e3e3e3e3e3e3e3e5b2d3c3c3c3c3c3c3c3c2b3e3e3e3e3e3e3e3e5d3e5b2d5d2b3c3c5b3e3e2d3c3c5b2d5d5d3e3e5b3c3c3c3c3c3c3c3c2c3e3e3e3e3e3e3e3e5b2d5d5d3c3c3c3c3c3c3c3c5d3c2e3c2e000000000000000000000000000000000000000000000000000000000000000000000000000011536e616b65204d696e696d616c69737461000000000000000000000000000000",
        "nonce": "0x5",
        "chainId": "0x279f"
      },
      "additionalContracts": [],
      "isFixedGasLimit": false
    },
    {
      "hash": "0x7539cda184ae23f397b5cb526017dbb1b59b9ac6f54fe4ee6ce39b35e69c1bc7",
      "transactionType": "CALL",
      "contractName": "CartridgeRegistry",
      "contractAddress": "0x99960401794c8358c4b1e9f3010102d28cee8a3c",
      "function": "loadCartridge(bytes,string)",
      "arguments": [
        "0x2c3e2c3e5b2d5d3c5b2d3e2b5b2d3e2b3e2b3c3c5d3e3e5b2d3c3c2b3e3e5d3c2d2d2d3e3e5b2d5d2b3c3c5b3e3e5b2d5d3c3c5b2d5d5d3e3e5b3c3c3c5b2d5d3e3e3e5b2d5d5d3c3c3c3c5d3c2b2b2b3e3e5b2d3c3c2d3e3e5d3c3c5b2d3e2b3c5d5b2d5d3e5b2d3c2b5b2d3e3e3e2b3e2b3c3c3c3c5d3e3e3e3e5b2d3c3c3c3c2b3e3e3e3e5d3c2d2d2d3e3e5b2d5d2b3c3c5b3e3e5b2d5d3c3c5b2d5d5d3e3e5b3c3c3c3c3c5b2d5d3e3e3e3e3e5b2d5d5d3c3c3c3c5d3c2e",
        "Jokenpo"
      ],
      "transaction": {
        "from": "0xe8b51d27389d581b99d70656de3c69d521485b5f",
        "to": "0x99960401794c8358c4b1e9f3010102d28cee8a3c",
        "gas": "0x9b89",
        "value": "0x0",
        "input": "0x20a4bf3e0000000000000000000000000000000000000000000000000000000000000040000000000000000000000000000000000000000000000000000000000000012000000000000000000000000000000000000000000000000000000000000000ba2c3e2c3e5b2d5d3c5b2d3e2b5b2d3e2b3e2b3c3c5d3e3e5b2d3c3c2b3e3e5d3c2d2d2d3e3e5b2d5d2b3c3c5b3e3e5b2d5d3c3c5b2d5d5d3e3e5b3c3c3c5b2d5d3e3e3e5b2d5d5d3c3c3c3c5d3c2b2b2b3e3e5b2d3c3c2d3e3e5d3c3c5b2d3e2b3c5d5b2d5d3e5b2d3c2b5b2d3e3e3e2b3e2b3c3c3c3c5d3e3e3e3e5b2d3c3c3c3c2b3e3e3e3e5d3c2d2d2d3e3e5b2d5d2b3c3c5b3e3e5b2d5d3c3c5b2d5d5d3e3e5b3c3c3c3c3c5b2d5d3e3e3e3e3e5b2d5d5d3c3c3c3c5d3c2e00000000000000000000000000000000000000000000000000000000000000000000000000074a6f6b656e706f00000000000000000000000000000000000000000000000000",
        "nonce": "0x6",
        "chainId": "0x279f"
      },
      "additionalContracts": [],
      "isFixedGasLimit": false
    },
    {
      "hash": "0xaa61d4b8a8a2b1c83a69a4aa1add349217636f329295118b40ff5e6d4a102009",
      "transactionType": "CALL",
      "contractName": "CartridgeRegistry",
      "contractAddress": "0x99960401794c8358c4b1e9f3010102d28cee8a3c",
      "function": "loadCartridge(bytes,string)",
      "arguments": [
        "0x3e2c3e3e5b2d5d2b3c2c5b3e3e5b2d5d3e5b2d5d3c3c3c5b2d3e3e2b3e2b3c3c3c5d3e3e3e5b2d3c3c3c2b3e3e3e5d3c2d3e3e5b2d5d2b3c3c5b3e3e5b2d5d3c3c5b2d5d5d3e3e5b3c3c3c3c3c2d3e3e3e3e3e5b2d5d5d3c3c5b2d5d3e5b2d5d3c3c3c5b2d3e3e2b3e2b3c3c3c5d3e3e3e5b2d3c3c3c2b3e3e3e5d3c2d2d3e3e5b2d5d2b3c3c5b3e3e5b2d5d3c3c5b2d5d5d3e3e5b3c3c3c3c3c5b2d3e3e3e3e3e3e3e3e3e3e3e3e3e2b3c3c3c3c3c3c3c3c3c3c3c3c3c5d3e3e3e3e3e3e3e3e3e3e3e5b2d5d3e5b2d5d3e3e5b2d5d3c5b2d3c5b2d3e3e2b3e2b3c3c3c5d3e3e3e5b2d3c3c3c2b3e3e3e5d3e5b2d5d2b3c3c5b3c3c5b2d5d3c2b3e3e3e3e3e5b2d5d3c3c5b2d5d5d3e3e5b3c3c3c3c2b3e3e3e3e5b2d5d5d3c3c3c5d3c3c5b2d3c3c3c3c3c3c3c3c3c3c3c2b3e3e3e3e3e3e3e3e3e3e3e5d3e5b3c3c3c3c3c3c3c3c3c3c5b2d5d3e3e3e3e3e3e3e3e3e3e5b2d5d5d3c3c3c3c3c3c3c5b2d5d5d3c3c3c3c5b2d5d2c5d3c2d3e3e3e3e3e5b2d5d2b3c3c3c3c3c5b3e3e3e3e3e5b2d5d3c3c3c3c3c5b2d5d5d3e3e3e3e3e3e3e5b2d5d3c3c3c3c3c5b3e3e3e5b3e3e2b3c3c5b2d5d5d3c3c3c5b2d5d5d3e3e3e3e3e2e",
        "Contador Invertido"
      ],
      "transaction": {
        "from": "0xe8b51d27389d581b99d70656de3c69d521485b5f",
        "to": "0x99960401794c8358c4b1e9f3010102d28cee8a3c",
        "gas": "0xd206",
        "value": "0x0",
        "input": "0x20a4bf3e0000000000000000000000000000000000000000000000000000000000000040000000000000000000000000000000000000000000000000000000000000022000000000000000000000000000000000000000000000000000000000000001b53e2c3e3e5b2d5d2b3c2c5b3e3e5b2d5d3e5b2d5d3c3c3c5b2d3e3e2b3e2b3c3c3c5d3e3e3e5b2d3c3c3c2b3e3e3e5d3c2d3e3e5b2d5d2b3c3c5b3e3e5b2d5d3c3c5b2d5d5d3e3e5b3c3c3c3c3c2d3e3e3e3e3e5b2d5d5d3c3c5b2d5d3e5b2d5d3c3c3c5b2d3e3e2b3e2b3c3c3c5d3e3e3e5b2d3c3c3c2b3e3e3e5d3c2d2d3e3e5b2d5d2b3c3c5b3e3e5b2d5d3c3c5b2d5d5d3e3e5b3c3c3c3c3c5b2d3e3e3e3e3e3e3e3e3e3e3e3e3e2b3c3c3c3c3c3c3c3c3c3c3c3c3c5d3e3e3e3e3e3e3e3e3e3e3e5b2d5d3e5b2d5d3e3e5b2d5d3c5b2d3c5b2d3e3e2b3e2b3c3c3c5d3e3e3e5b2d3c3c3c2b3e3e3e5d3e5b2d5d2b3c3c5b3c3c5b2d5d3c2b3e3e3e3e3e5b2d5d3c3c5b2d5d5d3e3e5b3c3c3c3c2b3e3e3e3e5b2d5d5d3c3c3c5d3c3c5b2d3c3c3c3c3c3c3c3c3c3c3c2b3e3e3e3e3e3e3e3e3e3e3e5d3e5b3c3c3c3c3c3c3c3c3c3c5b2d5d3e3e3e3e3e3e3e3e3e3e5b2d5d5d3c3c3c3c3c3c3c5b2d5d5d3c3c3c3c5b2d5d2c5d3c2d3e3e3e3e3e5b2d5d2b3c3c3c3c3c5b3e3e3e3e3e5b2d5d3c3c3c3c3c5b2d5d5d3e3e3e3e3e3e3e5b2d5d3c3c3c3c3c5b3e3e3e5b3e3e2b3c3c5b2d5d5d3c3c3c5b2d5d5d3e3e3e3e3e2e00000000000000000000000000000000000000000000000000000000000000000000000000000000000012436f6e7461646f7220496e7665727469646f0000000000000000000000000000",
        "nonce": "0x7",
        "chainId": "0x279f"
      },
      "additionalContracts": [],
      "isFixedGasLimit": false
    },
    {
      "hash": "0x48b27275135878bb7feb2f0074465c8f07cb9c5018274bc2fc6a77631b950c19",
      "transactionType": "CALL",
      "contractName": "BrainfuckVM",
      "contractAddress": "0x6376b74c56a5ee60d79d0eba53c5ceb5357f3556",
      "function": "run(bytes,bytes,uint256)",
      "arguments": [
        "0x2b2b2b2b2b2b2b2b5b3e2b2b2b2b5b3e2b2b3e2b2b2b3e2b2b2b3e2b3c3c3c3c2d5d3e2b3e2b3e2d3e3e2b5b3c5d3c2d5d3e3e2e3e2d2d2d2e2b2b2b2b2b2b2b2e2e2b2b2b2e3e3e2e3c2d2e3c2e2b2b2b2e2d2d2d2d2d2d2e2d2d2d2d2d2d2d2d2e3e3e2b2e3e2b2b2e",
        "0x",
        "10000"
      ],
      "transaction": {
        "from": "0xe8b51d27389d581b99d70656de3c69d521485b5f",
        "to": "0x6376b74c56a5ee60d79d0eba53c5ceb5357f3556",
        "gas": "0x8b25",
        "value": "0x0",
        "input": "0xd9a5f942000000000000000000000000000000000000000000000000000000000000006000000000000000000000000000000000000000000000000000000000000001000000000000000000000000000000000000000000000000000000000000002710000000000000000000000000000000000000000000000000000000000000006a2b2b2b2b2b2b2b2b5b3e2b2b2b2b5b3e2b2b3e2b2b2b3e2b2b2b3e2b3c3c3c3c2d5d3e2b3e2b3e2d3e3e2b5b3c5d3c2d5d3e3e2e3e2d2d2d2e2b2b2b2b2b2b2b2e2e2b2b2b2e3e3e2e3c2d2e3c2e2b2b2b2e2d2d2d2d2d2d2e2d2d2d2d2d2d2d2d2e3e3e2b2e3e2b2b2e000000000000000000000000000000000000000000000000000000000000000000000000000000000000000000000000000000000000",
        "nonce": "0x8",
        "chainId": "0x279f"
      },
      "additionalContracts": [],
      "isFixedGasLimit": false
    }
  ],
  "receipts": [
    {
      "status": "0x1",
      "cumulativeGasUsed": "0x159d8e",
      "logs": [],
      "logsBloom": "0x00000000000000000000000000000000000000000000000000000000000000000000000000000000000000000000000000000000000000000000000000000000000000000000000000000000000000000000000000000000000000000000000000000000000000000000000000000000000000000000000000000000000000000000000000000000000000000000000000000000000000000000000000000000000000000000000000000000000000000000000000000000000000000000000000000000000000000000000000000000000000000000000000000000000000000000000000000000000000000000000000000000000000000000000000000000",
      "type": "0x2",
      "transactionHash": "0x53c13b1041f4eff77cf3c791f5fb3b48f6b2e588d857cec2f8a295cef1847956",
      "transactionIndex": "0x1",
      "blockHash": "0xcb9c38f1d2a893c1ef1c79a6a064f690f0a4c0093fa7ff525e89893cf0f76c85",
      "blockNumber": "0x122203c",
      "gasUsed": "0x159d8e",
      "effectiveGasPrice": "0x17fb474601",
      "from": "0xe8b51d27389d581b99d70656de3c69d521485b5f",
      "to": null,
      "contractAddress": "0x6376b74c56a5ee60d79d0eba53c5ceb5357f3556"
    },
    {
      "status": "0x1",
      "cumulativeGasUsed": "0x17cfbd",
      "logs": [],
      "logsBloom": "0x00000000000000000000000000000000000000000000000000000000000000000000000000000000000000000000000000000000000000000000000000000000000000000000000000000000000000000000000000000000000000000000000000000000000000000000000000000000000000000000000000000000000000000000000000000000000000000000000000000000000000000000000000000000000000000000000000000000000000000000000000000000000000000000000000000000000000000000000000000000000000000000000000000000000000000000000000000000000000000000000000000000000000000000000000000000",
      "type": "0x2",
      "transactionHash": "0xf6e0fe4ce854c258c0b5ff3766b450d00bb680f5029c7e3bef5dff70531a4826",
      "transactionIndex": "0x1",
      "blockHash": "0x38537c08e932ac75a928d3b07373c48339fb3cd776cb2c9c47838167ca5191fe",
      "blockNumber": "0x1222042",
      "gasUsed": "0x17cfbd",
      "effectiveGasPrice": "0x17fb474601",
      "from": "0xe8b51d27389d581b99d70656de3c69d521485b5f",
      "to": null,
      "contractAddress": "0x99960401794c8358c4b1e9f3010102d28cee8a3c"
    },
    {
      "status": "0x1",
      "cumulativeGasUsed": "0x22137c",
      "logs": [
        {
          "address": "0x99960401794c8358c4b1e9f3010102d28cee8a3c",
          "topics": [
            "0x7dac7ca7c9cb104cc65101a08160dfc4ce5acc267eb472ca4ae6b41c2722f06c",
            "0x0000000000000000000000000000000000000000000000000000000000000000",
            "0x000000000000000000000000e8b51d27389d581b99d70656de3c69d521485b5f"
          ],
          "data": "0x0000000000000000000000000000000000000000000000000000000000000020000000000000000000000000000000000000000000000000000000000000000a54616d61676f7463686900000000000000000000000000000000000000000000",
          "blockHash": "0xf4cbf6f82849c0947e545923317009563f043b8a807b6933d6269e73bfdb6034",
          "blockNumber": "0x1222048",
          "blockTimestamp": "0x69b6f129",
          "transactionHash": "0xdf71d31e7cb0cea206a868d2e461b1dd1789da0a446198bcdf0b9494eea3f0cf",
          "transactionIndex": "0x1",
          "logIndex": "0x1",
          "removed": false
        }
      ],
      "logsBloom": "0x00000000000000000000000000000000000000000000000000000000000000000000000000000000000000000000000000000000000000000000000000000000000000000000000000000000000000000000000000000000000000000000000000000000020000000000000000000800000000000000000000000000000000000000000000000000000000000000000000000000000000000000000000000000000000000000000000000000000000000000000000000000000000000000080000010000000400000000004000000000000000000000000000000200000020000000000000020000000000000000000000000000100000000000000000002000",
      "type": "0x2",
      "transactionHash": "0xdf71d31e7cb0cea206a868d2e461b1dd1789da0a446198bcdf0b9494eea3f0cf",
      "transactionIndex": "0x1",
      "blockHash": "0xf4cbf6f82849c0947e545923317009563f043b8a807b6933d6269e73bfdb6034",
      "blockNumber": "0x1222048",
      "gasUsed": "0x22137c",
      "effectiveGasPrice": "0x17fb474601",
      "from": "0xe8b51d27389d581b99d70656de3c69d521485b5f",
      "to": "0x99960401794c8358c4b1e9f3010102d28cee8a3c",
      "contractAddress": null
    },
    {
      "status": "0x1",
      "cumulativeGasUsed": "0xe6424",
      "logs": [
        {
          "address": "0x99960401794c8358c4b1e9f3010102d28cee8a3c",
          "topics": [
            "0x7dac7ca7c9cb104cc65101a08160dfc4ce5acc267eb472ca4ae6b41c2722f06c",
            "0x0000000000000000000000000000000000000000000000000000000000000001",
            "0x000000000000000000000000e8b51d27389d581b99d70656de3c69d521485b5f"
          ],
          "data": "0x0000000000000000000000000000000000000000000000000000000000000020000000000000000000000000000000000000000000000000000000000000000b4469636520526f6c6c6572000000000000000000000000000000000000000000",
          "blockHash": "0xc1a05d81d2abe1c8561cded1ecfe3973171fb82ca6d0e5047cd15d89fa3623b0",
          "blockNumber": "0x122204a",
          "blockTimestamp": "0x69b6f12a",
          "transactionHash": "0x6abab73be4691931c441f8963117bf908b63b3654e9f8a3ff10bfaf24b4b0f79",
          "transactionIndex": "0x1",
          "logIndex": "0x1",
          "removed": false
        }
      ],
      "logsBloom": "0x00000000000000000000000000000000000000000000000000000000000000000000000000000000000000000000000000000000000000000000000000040000000000000000000000000000000000000000000000040000000000000000000000000000000000000000000000000000000000000000000000000000000000000000000000000000000000000000000000000000000000000000000000000000000000000000000000000000000000000000000000000000000000000000080000010000000400000000004000000000000000000000000000000200000060000000000000020000000000000000000000000000100000000000000000002000",
      "type": "0x2",
      "transactionHash": "0x6abab73be4691931c441f8963117bf908b63b3654e9f8a3ff10bfaf24b4b0f79",
      "transactionIndex": "0x1",
      "blockHash": "0xc1a05d81d2abe1c8561cded1ecfe3973171fb82ca6d0e5047cd15d89fa3623b0",
      "blockNumber": "0x122204a",
      "gasUsed": "0xe6424",
      "effectiveGasPrice": "0x17fb474601",
      "from": "0xe8b51d27389d581b99d70656de3c69d521485b5f",
      "to": "0x99960401794c8358c4b1e9f3010102d28cee8a3c",
      "contractAddress": null
    },
    {
      "status": "0x1",
      "cumulativeGasUsed": "0x736c30",
      "logs": [
        {
          "address": "0x99960401794c8358c4b1e9f3010102d28cee8a3c",
          "topics": [
            "0x7dac7ca7c9cb104cc65101a08160dfc4ce5acc267eb472ca4ae6b41c2722f06c",
            "0x0000000000000000000000000000000000000000000000000000000000000002",
            "0x000000000000000000000000e8b51d27389d581b99d70656de3c69d521485b5f"
          ],
          "data": "0x00000000000000000000000000000000000000000000000000000000000000200000000000000000000000000000000000000000000000000000000000000011536e616b65204d696e696d616c69737461000000000000000000000000000000",
          "blockHash": "0xa8fda6c4fb19cb7596cd696d93637ee061eff4486313c379cba8789472681165",
          "blockNumber": "0x122204c",
          "blockTimestamp": "0x69b6f12a",
          "transactionHash": "0x88bb30fea2155147a73ba8470dcb02b3dfeff40c6f13f2f789524fed744f0642",
          "transactionIndex": "0x1",
          "logIndex": "0x1",
          "removed": false
        }
      ],
      "logsBloom": "0x04000000000000000000000000000000000000000000000000000000000000000000000000000000000000000000000000000000000000000000000000000000000000000000000000000000000000000000000000000000000000000000000000000000000000000000000000000000000000000000000000000000000000000000000000000000000000000000000000000000000000000000000000000000000000000000000000000100000000000000000000000000000000000000080000010000000400000000004000000000000000000000000000000200000020000000000000020000000000000000000000000000108000000000000000002000",
      "type": "0x2",
      "transactionHash": "0x88bb30fea2155147a73ba8470dcb02b3dfeff40c6f13f2f789524fed744f0642",
      "transactionIndex": "0x1",
      "blockHash": "0xa8fda6c4fb19cb7596cd696d93637ee061eff4486313c379cba8789472681165",
      "blockNumber": "0x122204c",
      "gasUsed": "0x736c30",
      "effectiveGasPrice": "0x17fb474601",
      "from": "0xe8b51d27389d581b99d70656de3c69d521485b5f",
      "to": "0x99960401794c8358c4b1e9f3010102d28cee8a3c",
      "contractAddress": null
    },
    {
      "status": "0x1",
      "cumulativeGasUsed": "0x103f2e",
      "logs": [
        {
          "address": "0x99960401794c8358c4b1e9f3010102d28cee8a3c",
          "topics": [
            "0x7dac7ca7c9cb104cc65101a08160dfc4ce5acc267eb472ca4ae6b41c2722f06c",
            "0x0000000000000000000000000000000000000000000000000000000000000003",
            "0x000000000000000000000000e8b51d27389d581b99d70656de3c69d521485b5f"
          ],
          "data": "0x000000000000000000000000000000000000000000000000000000000000002000000000000000000000000000000000000000000000000000000000000000074a6f6b656e706f00000000000000000000000000000000000000000000000000",
          "blockHash": "0x6d6ccd90e9f4f2b13d95f485695b008bbed7b79c2ad46ac23af7ee6214a8da4c",
          "blockNumber": "0x1222052",
          "blockTimestamp": "0x69b6f12d",
          "transactionHash": "0x7539cda184ae23f397b5cb526017dbb1b59b9ac6f54fe4ee6ce39b35e69c1bc7",
          "transactionIndex": "0x1",
          "logIndex": "0x1",
          "removed": false
        }
      ],
      "logsBloom": "0x00000000000000000000000000000000000000000000000000000000000000000000000000000000000000000000000000000000020000000000000000000000000000000000000000000000000000000000000000000000000000000000000000000000000000000000000000000000000000000000000000000000000000000000000000000000000000000000000000000000000000000000000000000000000000000000000000000000000000000000000000800000000000000000480000010000000400000000004000000000000000000000000000000200000020000000000000020000000000000000000000000000100000000000000000002000",
      "type": "0x2",
      "transactionHash": "0x7539cda184ae23f397b5cb526017dbb1b59b9ac6f54fe4ee6ce39b35e69c1bc7",
      "transactionIndex": "0x1",
      "blockHash": "0x6d6ccd90e9f4f2b13d95f485695b008bbed7b79c2ad46ac23af7ee6214a8da4c",
      "blockNumber": "0x1222052",
      "gasUsed": "0x103f2e",
      "effectiveGasPrice": "0x17fb474601",
      "from": "0xe8b51d27389d581b99d70656de3c69d521485b5f",
      "to": "0x99960401794c8358c4b1e9f3010102d28cee8a3c",
      "contractAddress": null
    },
    {
      "status": "0x1",
      "cumulativeGasUsed": "0x1c288b",
      "logs": [
        {
          "address": "0x99960401794c8358c4b1e9f3010102d28cee8a3c",
          "topics": [
            "0x7dac7ca7c9cb104cc65101a08160dfc4ce5acc267eb472ca4ae6b41c2722f06c",
            "0x0000000000000000000000000000000000000000000000000000000000000004",
            "0x000000000000000000000000e8b51d27389d581b99d70656de3c69d521485b5f"
          ],
          "data": "0x00000000000000000000000000000000000000000000000000000000000000200000000000000000000000000000000000000000000000000000000000000012436f6e7461646f7220496e7665727469646f0000000000000000000000000000",
          "blockHash": "0x2e00bb4b147d727461d21e3d04a420734877315403ef339f698ef5e1d458adee",
          "blockNumber": "0x1222054",
          "blockTimestamp": "0x69b6f12e",
          "transactionHash": "0xaa61d4b8a8a2b1c83a69a4aa1add349217636f329295118b40ff5e6d4a102009",
          "transactionIndex": "0x1",
          "logIndex": "0x1",
          "removed": false
        }
      ],
      "logsBloom": "0x00000000000000000000000000000000000000000000000000000000000000000000000000000000000000000000000000000000000000000000000000000000000000000000000000000000000000000000000000000000000000000000000008000000000000000000000000000000000000000000000000000000000000000000000000000000000000000000000000000000000000000000000000000000000000000000000000000000000000000000000000000000002000000000080000010000000400000000004000000000000000008000000000000200000020000000000000020000000000000000000000000000100000000000000000002000",
      "type": "0x2",
      "transactionHash": "0xaa61d4b8a8a2b1c83a69a4aa1add349217636f329295118b40ff5e6d4a102009",
      "transactionIndex": "0x1",
      "blockHash": "0x2e00bb4b147d727461d21e3d04a420734877315403ef339f698ef5e1d458adee",
      "blockNumber": "0x1222054",
      "gasUsed": "0x1c288b",
      "effectiveGasPrice": "0x17fb474601",
      "from": "0xe8b51d27389d581b99d70656de3c69d521485b5f",
      "to": "0x99960401794c8358c4b1e9f3010102d28cee8a3c",
      "contractAddress": null
    },
    {
      "status": "0x1",
      "cumulativeGasUsed": "0x74575",
      "logs": [
        {
          "address": "0x6376b74c56a5ee60d79d0eba53c5ceb5357f3556",
          "topics": [
            "0x612cc37a1f47d630f6488cfac15c0d592f122a93b89ad14d7ca60eb36ad093f5",
            "0x96a5025e350023b16219a6b65089c57089f508b6d551fa282aca3dc986d5e74e",
            "0x000000000000000000000000e8b51d27389d581b99d70656de3c69d521485b5f"
          ],
          "data": "0x0000000000000000000000000000000000000000000000000000000000000020000000000000000000000000000000000000000000000000000000000000000d48656c6c6f20576f726c64210a00000000000000000000000000000000000000",
          "blockHash": "0x0330c16155f1b5ce2ba4a34a0323be7fbe1935c36ec26f2016d58a43bd794432",
          "blockNumber": "0x122205a",
          "blockTimestamp": "0x69b6f130",
          "transactionHash": "0x48b27275135878bb7feb2f0074465c8f07cb9c5018274bc2fc6a77631b950c19",
          "transactionIndex": "0x1",
          "logIndex": "0x1",
          "removed": false
        }
      ],
      "logsBloom": "0x00000000000000000000000000000000000000000000000000000000000000800000000000000000000000000000200000000000000000000000000000008000000000000000000000000000000000000000000000000000000000000000000000000000000000000000000000000000000000000000000000000000000000010000040000000000000000000000000000000000000000000200000000000000000000000000000000000100000000000000000000000000000000000000000000000000000000000000004000000000000000000000000000000200000000000000000000000000000000100000000000000000000000000000000000082000",
      "type": "0x2",
      "transactionHash": "0x48b27275135878bb7feb2f0074465c8f07cb9c5018274bc2fc6a77631b950c19",
      "transactionIndex": "0x1",
      "blockHash": "0x0330c16155f1b5ce2ba4a34a0323be7fbe1935c36ec26f2016d58a43bd794432",
      "blockNumber": "0x122205a",
      "gasUsed": "0x74575",
      "effectiveGasPrice": "0x17fb474601",
      "from": "0xe8b51d27389d581b99d70656de3c69d521485b5f",
      "to": "0x6376b74c56a5ee60d79d0eba53c5ceb5357f3556",
      "contractAddress": null
    }
  ],
  "libraries": [],
  "pending": [],
  "returns": {},
  "timestamp": 1773596976612,
  "chain": 10143,
  "commit": "57000ea"
}