{
  "transactions": [
    {
      "hash": "0xd2517714fda5d7e4253dffbf1e1ecd1270560351dfe7c6cff3d2ff2c14f2eec0",
      "transactionType": "CALL",
      "contractName": null,
      "contractAddress": "0xf781132c072e2d6d80733044bad33a4b0709ba30",
      "function": "loadCartridge(bytes,string)",
      "arguments": [
        "0x2b2b2b2b2b2b2b2b2b2b3e3c3e3e3e2c3c3c3c5b3e2b2b2b2b2b2b2b2b2b2b2b2b2b2b2b2b2b2b2b2b2b2b2b2b2b2b2b2b2b2b2b2b2b2b2b2b2b2b2b2b2b2b2b2b2b2b2b2b2b2b2b2b2b2b2b2b2b2b2b2b2b2b2b2b2b2b2b2b2b2b2b2b2b2b2b2b2b2b2b2b2b2b2b2b2b2b2b2b2b2b2b2b2b2b2b2b2b2b2b2b3c3e5b3c3e3e3e3e2c3c3c3c3c3e3e5b2d3e3e3e2b3e2b3c3c3c3c5d3e3e3e3e5b2d3c3c3c3c2b3e3e3e3e5d3c3c3c3c3c3c3e3e3e5b2d3e3e2b3e2b3c3c3c5d3e3e3e5b2d3c3c3c2b3e3e3e5d3c3c3c3c3c3c3e3e3e3e5b2d3e2b3e2b3c3c5d3e3e5b2d3c3c2b3e3e5d3c3c3c3c3c3c3e3e3e3e3e3e5b2d5d3e5b2d5d3c3c3c3c3c3c3c3e3e3e3e3e5b2d3e2b3c5d3c3c3c3c3c3e3e3e3e3e3e5b3e2b3c3c2b3e2d5b3c2d3e2d5d5d3c3c3c3c3c3c3e3e3e3e3e2e3c3c3c3c3c3e3e5b2d5d3c3c3e3e3e5b2d3c2b3e5d3c3c3c3e3e3e3e5b2d3c2b3e5d3c3c3c3c3e3e3e3e3e5b2d5d3c3c3c3c3c3e2d5d3c2d5d",
        "GoL 3D (1000 Cells)"
      ],
      "transaction": {
        "from": "0x71e067692691c3a1c53d4ab126bbea76162bfd06",
        "to": "0xf781132c072e2d6d80733044bad33a4b0709ba30",
        "gas": "0x9af48",
        "value": "0x0",
        "input": "0x20a4bf3e000000000000000000000000000000000000000000000000000000000000004000000000000000000000000000000000000000000000000000000000000001e000000000000000000000000000000000000000000000000000000000000001672b2b2b2b2b2b2b2b2b2b3e3c3e3e3e2c3c3c3c5b3e2b2b2b2b2b2b2b2b2b2b2b2b2b2b2b2b2b2b2b2b2b2b2b2b2b2b2b2b2b2b2b2b2b2b2b2b2b2b2b2b2b2b2b2b2b2b2b2b2b2b2b2b2b2b2b2b2b2b2b2b2b2b2b2b2b2b2b2b2b2b2b2b2b2b2b2b2b2b2b2b2b2b2b2b2b2b2b2b2b2b2b2b2b2b2b2b2b2b2b2b3c3e5b3c3e3e3e3e2c3c3c3c3c3e3e5b2d3e3e3e2b3e2b3c3c3c3c5d3e3e3e3e5b2d3c3c3c3c2b3e3e3e3e5d3c3c3c3c3c3c3e3e3e5b2d3e3e2b3e2b3c3c3c5d3e3e3e5b2d3c3c3c2b3e3e3e5d3c3c3c3c3c3c3e3e3e3e5b2d3e2b3e2b3c3c5d3e3e5b2d3c3c2b3e3e5d3c3c3c3c3c3c3e3e3e3e3e3e5b2d5d3e5b2d5d3c3c3c3c3c3c3c3e3e3e3e3e5b2d3e2b3c5d3c3c3c3c3c3e3e3e3e3e3e5b3e2b3c3c2b3e2d5b3c2d3e2d5d5d3c3c3c3c3c3c3e3e3e3e3e2e3c3c3c3c3c3e3e5b2d5d3c3c3e3e3e5b2d3c2b3e5d3c3c3c3e3e3e3e5b2d3c2b3e5d3c3c3c3c3e3e3e3e3e5b2d5d3c3c3c3c3c3e2d5d3c2d5d000000000000000000000000000000000000000000000000000000000000000000000000000000000000000000000000000000000000000013476f4c2033442028313030302043656c6c732900000000000000000000000000",
        "nonce": "0xd",
        "chainId": "0x279f"
      },
      "additionalContracts": [],
      "isFixedGasLimit": false
    }
  ],
  "receipts": [
    {
      "status": "0x1",
      "cumulativeGasUsed": "0x9af48",
      "logs": [
        {
          "address": "0xf781132c072e2d6d80733044bad33a4b0709ba30",
          "topics": [
            "0x7dac7ca7c9cb104cc65101a08160dfc4ce5acc267eb472ca4ae6b41c2722f06c",
            "0x0000000000000000000000000000000000000000000000000000000000000004",
            "0x00000000000000000000000071e067692691c3a1c53d4ab126bbea76162bfd06"
          ],
          "data": "0x00000000000000000000000000000000000000000000000000000000000000200000000000000000000000000000000000000000000000000000000000000013476f4c2033442028313030302043656c6c732900000000000000000000000000",
          "blockHash": "0x153531ce684ee6782c0347ea3432cd881b0c81c9d4cc15a27052478f9097e726",
          "blockNumber": "0x1122f43",
          "blockTimestamp": "0x69b082b1",
          "transactionHash": "0xd2517714fda5d7e4253dffbf1e1ecd1270560351dfe7c6cff3d2ff2c14f2eec0",
          "transactionIndex": "0x1",
          "logIndex": "0x1",
          "removed": false
        }
      ],
      "logsBloom": "0x00000000000000000000000000000000000000000000000000000000000000000000000000000000000000000000000000000000000000000000000000000000000000000000000000000000000000000000000000000000000000080000000008000000000000000000000000000000000000000000000000000000000000000000000000000000010000000000000000000800000000000000000000000000000000000000000000000000000000000000000000000000002100000000080000000002000400000000000000000000000000008000000000000000000000000000000000020000000000000000000000000000100000000000000000000000",
      "type": "0x2",
      "transactionHash": "0xd2517714fda5d7e4253dffbf1e1ecd1270560351dfe7c6cff3d2ff2c14f2eec0",
      "transactionIndex": "0x1",
      "blockHash": "0x153531ce684ee6782c0347ea3432cd881b0c81c9d4cc15a27052478f9097e726",
      "blockNumber": "0x1122f43",
      "gasUsed": "0x9af48",
      "effectiveGasPrice": "0x18727cda00",
      "from": "0x71e067692691c3a1c53d4ab126bbea76162bfd06",
      "to": "0xf781132c072e2d6d80733044bad33a4b0709ba30",
      "contractAddress": null
    }
  ],
  "libraries": [],
  "pending": [],
  "returns": {},
  "timestamp": 1773175474894,
  "chain": 10143,
  "commit": null
}