{
  "transactions": [
    {
      "hash": "0x0ae6c161637f0cd14bb0cdc76ba4c3ba31a2cad4e4d2295504262f4306486f23",
      "transactionType": "CALL",
      "contractName": null,
      "contractAddress": "0xf781132c072e2d6d80733044bad33a4b0709ba30",
      "function": "loadCartridge(bytes,string)",
      "arguments": [
        "0x3e3e2c5b2d3e2b3e2b3c3c5d3e3e5b2d3c3c2b3e3e5d3c5b2d3e3e2b3c3c5d3e3e5b2d3c3c2b2b2b2b2b2b2b3e3e5d3c3c2b2b2b3e3e3e2b2b2b2b2b2b3e5b2d5d3e5b2d5d3c3c3c3c3c5b2d3e3e3e3e2b5b2d3c3c2b3c2b3e3e3e5d3c3c3c5b2d3e3e3e2b3c3c3c5d3e2d2d2d2d2d2d3c5b2d5d2b3e5b3c2d3e5b2d5d5d3c5b3e3e3e5b2d5d3c3c3c2d5d3c5d3e3e3e3e2b2e",
        "Dice Roller v2"
      ],
      "transaction": {
        "from": "0x71e067692691c3a1c53d4ab126bbea76162bfd06",
        "to": "0xf781132c072e2d6d80733044bad33a4b0709ba30",
        "gas": "0x5ab48",
        "value": "0x0",
        "input": "0x20a4bf3e0000000000000000000000000000000000000000000000000000000000000040000000000000000000000000000000000000000000000000000000000000010000000000000000000000000000000000000000000000000000000000000000933e3e2c5b2d3e2b3e2b3c3c5d3e3e5b2d3c3c2b3e3e5d3c5b2d3e3e2b3c3c5d3e3e5b2d3c3c2b2b2b2b2b2b2b3e3e5d3c3c2b2b2b3e3e3e2b2b2b2b2b2b3e5b2d5d3e5b2d5d3c3c3c3c3c5b2d3e3e3e3e2b5b2d3c3c2b3c2b3e3e3e5d3c3c3c5b2d3e3e3e2b3c3c3c5d3e2d2d2d2d2d2d3c5b2d5d2b3e5b3c2d3e5b2d5d5d3c5b3e3e3e5b2d5d3c3c3c2d5d3c5d3e3e3e3e2b2e00000000000000000000000000000000000000000000000000000000000000000000000000000000000000000e4469636520526f6c6c6572207632000000000000000000000000000000000000",
        "nonce": "0xc",
        "chainId": "0x279f"
      },
      "additionalContracts": [],
      "isFixedGasLimit": false
    }
  ],
  "receipts": [
    {
      "status": "0x1",
      "cumulativeGasUsed": "0x5ab48",
      "logs": [
        {
          "address": "0xf781132c072e2d6d80733044bad33a4b0709ba30",
          "topics": [
            "0x7dac7ca7c9cb104cc65101a08160dfc4ce5acc267eb472ca4ae6b41c2722f06c",
            "0x0000000000000000000000000000000000000000000000000000000000000003",
            "0x00000000000000000000000071e067692691c3a1c53d4ab126bbea76162bfd06"
          ],
          "data": "0x0000000000000000000000000000000000000000000000000000000000000020000000000000000000000000000000000000000000000000000000000000000e4469636520526f6c6c6572207632000000000000000000000000000000000000",
          "blockHash": "0x99d7114d7b9c00246bf7271ddb43300545c62a84b37206217529163ce9239492",
          "blockNumber": "0x11227cd",
          "blockTimestamp": "0x69b07f9c",
          "transactionHash": "0x0ae6c161637f0cd14bb0cdc76ba4c3ba31a2cad4e4d2295504262f4306486f23",
          "transactionIndex": "0x1",
          "logIndex": "0x1",
          "removed": false
        }
      ],
      "logsBloom": "0x00000000000000000000000000000000000000000000000000000000000000000000000000000000000000000000000000000000020000000000000000000000000000000000000000000000000000000000000000000000000000080000000000000000000000000000000000000000000000000000000000000000000000000000000000000000010000000000000000000800000000000000000000000000000000000000000000000000000000000000000000800000000100000000480000000002000400000000000000000000000000000000000000000000000000000000000000020000000000000000000000000000100000000000000000000000",
      "type": "0x2",
      "transactionHash": "0x0ae6c161637f0cd14bb0cdc76ba4c3ba31a2cad4e4d2295504262f4306486f23",
      "transactionIndex": "0x1",
      "blockHash": "0x99d7114d7b9c00246bf7271ddb43300545c62a84b37206217529163ce9239492",
      "blockNumber": "0x11227cd",
      "gasUsed": "0x5ab48",
      "effectiveGasPrice": "0x18727cda00",
      "from": "0x71e067692691c3a1c53d4ab126bbea76162bfd06",
      "to": "0xf781132c072e2d6d80733044bad33a4b0709ba30",
      "contractAddress": null
    }
  ],
  "libraries": [],
  "pending": [],
  "returns": {},
  "timestamp": 1773174685414,
  "chain": 10143,
  "commit": null
}